{
    "_format": "hh-sol-artifact-1",
    "contractName": "WavePortal",
    "sourceName": "contracts/WavePortal.sol",
    "abi": [
        {
            "inputs": [],
            "stateMutability": "nonpayable",
            "type": "constructor"
        },
        {
            "inputs": [],
            "name": "getTotalWaves",
            "outputs": [
                {
                    "internalType": "uint256",
                    "name": "",
                    "type": "uint256"
                }
            ],
            "stateMutability": "view",
            "type": "function"
        },
        {
            "inputs": [
                {
                    "internalType": "uint256",
                    "name": "count",
                    "type": "uint256"
                }
            ],
            "name": "wave",
            "outputs": [],
            "stateMutability": "nonpayable",
            "type": "function"
        }
    ],
    "bytecode": "0x608060405234801561001057600080fd5b5061003c6040518060600160405280602581526020016107996025913961004160201b61011b1760201c565b6101c4565b6100dd816040516024016100559190610142565b6040516020818303038152906040527f41304fac000000000000000000000000000000000000000000000000000000007bffffffffffffffffffffffffffffffffffffffffffffffffffffffff19166020820180517bffffffffffffffffffffffffffffffffffffffffffffffffffffffff83818316178352505050506100e060201b60201c565b50565b60008151905060006a636f6e736f6c652e6c6f679050602083016000808483855afa5050505050565b600061011482610164565b61011e818561016f565b935061012e818560208601610180565b610137816101b3565b840191505092915050565b6000602082019050818103600083015261015c8184610109565b905092915050565b600081519050919050565b600082825260208201905092915050565b60005b8381101561019e578082015181840152602081019050610183565b838111156101ad576000848401525b50505050565b6000601f19601f8301169050919050565b6105c6806101d36000396000f3fe608060405234801561001057600080fd5b50600436106100365760003560e01c80639a2cdc081461003b578063eaa81bc714610059575b600080fd5b610043610075565b604051610050919061043d565b60405180910390f35b610073600480360381019061006e919061032d565b6100c0565b005b60006100b86040518060400160405280601681526020017f5765206861766520256420746f74616c207761766573000000000000000000008152506000546101b4565b600054905090565b806000808282546100d19190610474565b925050819055506101186040518060400160405280601781526020017f2573206973207761766564212025732074696d652873290000000000000000008152503383610250565b50565b6101b18160405160240161012f91906103ad565b6040516020818303038152906040527f41304fac000000000000000000000000000000000000000000000000000000007bffffffffffffffffffffffffffffffffffffffffffffffffffffffff19166020820180517bffffffffffffffffffffffffffffffffffffffffffffffffffffffff83818316178352505050506102ef565b50565b61024c82826040516024016101ca92919061040d565b6040516020818303038152906040527f9710a9d0000000000000000000000000000000000000000000000000000000007bffffffffffffffffffffffffffffffffffffffffffffffffffffffff19166020820180517bffffffffffffffffffffffffffffffffffffffffffffffffffffffff83818316178352505050506102ef565b5050565b6102ea838383604051602401610268939291906103cf565b6040516020818303038152906040527f07c81217000000000000000000000000000000000000000000000000000000007bffffffffffffffffffffffffffffffffffffffffffffffffffffffff19166020820180517bffffffffffffffffffffffffffffffffffffffffffffffffffffffff83818316178352505050506102ef565b505050565b60008151905060006a636f6e736f6c652e6c6f679050602083016000808483855afa5050505050565b60008135905061032781610579565b92915050565b60006020828403121561033f57600080fd5b600061034d84828501610318565b91505092915050565b61035f816104ca565b82525050565b600061037082610458565b61037a8185610463565b935061038a818560208601610506565b61039381610568565b840191505092915050565b6103a7816104fc565b82525050565b600060208201905081810360008301526103c78184610365565b905092915050565b600060608201905081810360008301526103e98186610365565b90506103f86020830185610356565b610405604083018461039e565b949350505050565b600060408201905081810360008301526104278185610365565b9050610436602083018461039e565b9392505050565b6000602082019050610452600083018461039e565b92915050565b600081519050919050565b600082825260208201905092915050565b600061047f826104fc565b915061048a836104fc565b9250827fffffffffffffffffffffffffffffffffffffffffffffffffffffffffffffffff038211156104bf576104be610539565b5b828201905092915050565b60006104d5826104dc565b9050919050565b600073ffffffffffffffffffffffffffffffffffffffff82169050919050565b6000819050919050565b60005b83811015610524578082015181840152602081019050610509565b83811115610533576000848401525b50505050565b7f4e487b7100000000000000000000000000000000000000000000000000000000600052601160045260246000fd5b6000601f19601f8301169050919050565b610582816104fc565b811461058d57600080fd5b5056fea264697066735822122011510c36bf629a90878110e98aeacb6518032ffe782f778ccdd81d0c9c91955b64736f6c63430008040033596f20796f2c204920616d206120636f6e747261637420616e64204920616d20736d617274",
    "linkReferences": {},
    "deployedLinkReferences": {}
}